:100000002D0C5C5CFF5BF4040E2404240524062400
:100010000724082409240A240B2408B089B000B15D
:1000200081B107600A601B600560026003600662C0
:1000300050BB1448D5A084C540BD0844F0BD084459
:100040002284B3940558228CB39C025870BDFB43A4
:1000500087C5B3F022D811D800D8E95B0B040A0495
:100060000904080407040604050404040E040FB779
:10007000430E3020B1200FB70E240424052406249B
:10008000C30D3000B100D26F32743360BD5F336C8A
:10009000E379646280811192F56FF57F80BA044440
:1000A00090BA024400600160830C3020B12080B01F
:1000B0000604050404040E040FB7FE000E240424F5
:1000C0000524062407240824F06250710160D05FE3
:1000D000540D05605660076050BB0848CD5FD8825C
:1000E000431480B90244D5A0F75B176080B30804BD
:0E00F00007040604050404040E040FB7020101
:0E00FE000100000053450708500EFB3C582639
:00000001FF
